:1000000016C02EC02DC02CC02BC02AC02AC028C0AC
:1000100027C026C025C024C023C022C021C020C0C4
:100020001FC01EC01DC040080400000000101124A5
:100030001FBECFEDCDBF10E0A0E6B0E0E4ECF7E0EE
:1000400002C005900D92A038B107D9F710E0A0E8E2
:10005000B0E001C01D92A839B107E1F709D3B0C3E0
:10006000CFCF1F920F920FB60F9211240F931F93B1
:100070002F933F934F935F936F937F938F939F93B0
:10008000AF93BF93EF93FF9380918500909186008B
:100090000196909386008093850082519A4790F054
:1000A000109286001092850080916000806280939B
:1000B000600080918700909188000196909388005D
:1000C0008093870020918B00422F50E0CA018F70EF
:1000D0009070892B21F0215020938B00D9C0209162
:1000E0006100CA0102C0959587952A95E2F79C01A7
:1000F000982F20938B008AB38C7F8ABB87B381783B
:1001000087BB81B3817E81BB8BB38C7F8BBB88B374
:10011000817888BB82B3817E82BB222321F09150FB
:1001200090938B00B5C080918000882309F0B0C007
:10013000949A82E08A95F1F78091830090918400EF
:10014000849B1BC0009789F08F31910588F0815BFB
:10015000984220F080916000806803C08091600028
:1001600080648093600084E101C080E180938B0013
:1001700010928400109283000CC00196909384002A
:1001800080938300815B984220F087B3806687BBB1
:10019000C69A949881B3817E81BB82B3817E82BBF3
:1001A00080916000807C09F073C080918300909101
:1001B0008400892B09F06CC0E0916200F09163002B
:1001C000DF019D913181292F229526952695237057
:1001D0009F7310918100612F70E0FB01EA5DFF4F7A
:1001E0000491AB01465D5F4FFA0144918AB3822BC3
:1001F0008ABB87B3832B802B87BB81B3892B842B4E
:1002000081BB8BB32095282B2BBB88B33095032360
:10021000082B08BB82B390954923482B42BB11960B
:100220008C91119780938B001296B0936300A093EA
:1002300062008823F9F08091600090E083709070F4
:10024000892BC1F0809185009091860089509D4353
:1002500088F08091600090E0837090706817790753
:1002600031F0112339F48091600081FD03C088E0F2
:1002700080938B00812F8F5F80938100843040F0CA
:10028000109281008CE890E090936300809362006C
:10029000FF91EF91BF91AF919F918F917F916F915E
:1002A0005F914F913F912F911F910F910F900FBE32
:1002B0000F901F901895CF93DF93FC0140E072E000
:1002C00052E0C8ECD0E045C0B081A18182B38F7903
:1002D00082BB872F8A95F1F7909A872F8A95F1F73D
:1002E000909890E840E020E030E0440FB099416001
:1002F00082B38F7982BB892F8B2309F0969A892F3D
:100300008A2309F0959A872F8A95F1F7909A872F7B
:100310008A95F1F7909896952F5F3F4F28303105D9
:1003200021F7329682B38F7982BB852F8A95F1F7B8
:10033000909A852F8A95F1F79098852F8A95F1F7F5
:10034000909A852F8A95F1F79098CE010197F1F751
:100350006150662309F0B8CF842FDF91CF910895C3
:100360006F927F928F929F92AF92BF92CF92DF92C5
:10037000EF92FF920F931F93DF93CF93CDB7DEB72A
:1003800066970FB6F894DEBF0FBECDBFC82EF894A7
:10039000809180008F5F8093800087B3816C87BBE2
:1003A00088B38E7B88BBC79A81B3816681BB82B3D9
:1003B0008E7982BBC69A8AE68A95F1F7C79888E259
:1003C0008A95F1F7B89888E592E00197F1F7DE0198
:1003D0001F96E8E7F0E088E001900D928150E1F788
:1003E00005E610E078010894E108F108DD242FE02B
:1003F000622E712C6C0E7D1E91E1892E912C8C0E3B
:100400009D1ED98ADD2019F0C40163E002C0C3013A
:1004100064E051DFF70180835801D3940F5F1F4FD1
:100420000894E11CF11CF3E0DF1659F7DE01119688
:10043000E1E7F0E087E001900D928150E1F7DE0105
:100440001896EAE6F0E087E001900D928150E1F71E
:10045000809164008E3181F590916500892F807FB5
:10046000803951F520916600822F807F29F5929581
:10047000907F922B9093650020E030E0BE016F5F8B
:100480007F4FAE01485F5F4FFB01E20FF31F90917A
:1004900065008081981741F420936400FA01E20F0F
:1004A000F31F8081809365002F5F3F4F2730310518
:1004B00059F70894A108B108CC2009F44FC080E492
:1004C0008F878CE28A8B84E68C8B809165008331E8
:1004D00021F0843411F0843811F48AE601C082E6F8
:1004E000898BCE010F9664E0E6DE84EF91E028EC84
:1004F00030E0F9013197F1F70197D9F784E78C8B58
:100500008CE78E8B80916500833111F48FEF01C0F1
:100510008FED898BCE010F9664E0CDDE84EF91E004
:1005200028EC30E0F9013197F1F70197D9F7809184
:100530006500833199F086E68C8B8EE68E8B81E0A8
:10054000898BCE010F9664E0B6DE84EF91E028EC53
:1005500030E0F9013197F1F70197D9F784E08F87FF
:10056000198A88E68A8B8CE68C8B8FE0E82EF12C3A
:10057000EC0EFD1EC70163E09EDEF50181938F0145
:100580008AE78A8B8CE78C8BC70163E094DEF501E8
:10059000818380916500833149F08AE68A8B8EE6FB
:1005A0008C8BC70163E087DEF8018183C79A88B32B
:1005B0008E7B88BB82B38E7982BB80918000815014
:1005C00080938000789466960FB6F894DEBF0FBED5
:1005D000CDBFCF91DF911F910F91FF90EF90DF90F2
:1005E000CF90BF90AF909F908F907F906F90089525
:1005F000EF92FF920F931F93CF93DF93082F162F45
:1006000066FF07C01F70612F6F5F8F70F1DF02956B
:100610000F70812F90E063E070E0B8D03CE8E32EEB
:1006200030E0F32EE80EF91E809180008F5F8093FA
:100630008000802F90E063E070E0A8D0EC0113E030
:100640001150CE01810F911D80509040B1D0F70123
:1006500081937F011123A1F78091800081508093C5
:100660008000DF91CF911F910F91FF90EF9008953F
:10067000AF92BF92CF92DF92EF92FF920F931F93B0
:10068000CF93DF9383B7816083BF89B7826089BFCF
:1006900012BE1BBA8BB38ABB12BA82B381BB81EC88
:1006A00087BB80E888BB84EF91E028EC30E0F9015B
:1006B0003197F1F70197D9F780E052DE789471E035
:1006C000A72EB12C68ECC62ED12C10918200812F60
:1006D00090E09501012E02C0220F331F0A94E2F729
:1006E000022F880F991F45E6E42E40E0F42EE80E15
:1006F000F91EEC01CC59DF4F8091600085FF05C0E9
:10070000809160008F7D809360008091600083FF06
:1007100016C080916000877F8093600000938900FD
:10072000112319F0888160E405C085E160E060DF95
:1007300084E161E05DDFF701808162E459DF80914F
:100740006000807CC9F210928A008091600086FF70
:1007500009C0812F8F5F80938200833060F01092F8
:10076000820009C01092820081E0FADDC601019783
:10077000F1F780E0F5DD809160008F738093600079
:10078000809160008860809360009FCF552700248F
:1007900080FF02C0060E571F660F771F6115710597
:1007A00021F096958795009799F7952F802D0895BC
:1007B000E199FECF1FBA8EBBE09A99278DB30895B9
:0407C000F894FFCFDB
:1007C40018018C00EEEEEEEE00001325458524445E
:1007D400840718263B1B273C084C000C0068006C5F
:00000001FF
